{
  "transactions": [
    {
      "hash": "0xd77966733c82cdc6acccbff179697bfeb014bf32a2df2daa4ba3e09ff496d74a",
      "transactionType": "CALL",
      "contractName": "Market",
      "contractAddress": "0x71d3b4779Fe591147db2013359A7B1A568535812",
      "function": "deployMarket(uint256,uint256,uint256,uint256,uint256,uint256,uint256,uint256,bool,bool)",
      "arguments": [
        "12",
        "1",
        "100000000000",
        "5000",
        "1680612900",
        "7257600",
        "36288000",
        "2419200",
        "false",
        "true"
      ],
      "rpc": "https://goerli.infura.io/v3/933de382bfe646aab3dbf58d05f35091",
      "transaction": {
        "type": "0x02",
        "from": "0xfd2f2ac9ba51b8864aa1b9356bffe582eafcf75e",
        "to": "0x71d3b4779fe591147db2013359a7b1a568535812",
        "gas": "0x4e655",
        "value": "0x0",
        "data": "0x0fa3e428000000000000000000000000000000000000000000000000000000000000000c0000000000000000000000000000000000000000000000000000000000000001000000000000000000000000000000000000000000000000000000174876e800000000000000000000000000000000000000000000000000000000000000138800000000000000000000000000000000000000000000000000000000642c1e2400000000000000000000000000000000000000000000000000000000006ebe00000000000000000000000000000000000000000000000000000000000229b600000000000000000000000000000000000000000000000000000000000024ea0000000000000000000000000000000000000000000000000000000000000000000000000000000000000000000000000000000000000000000000000000000001",
        "nonce": "0xd",
        "accessList": []
      },
      "additionalContracts": []
    },
    {
      "hash": "0xf3c2f8c7497e33a4612cee52ca4f58d3418247ff18a0d7e2216d6fb9f389414d",
      "transactionType": "CALL",
      "contractName": "Market",
      "contractAddress": "0x71d3b4779Fe591147db2013359A7B1A568535812",
      "function": "deployMarket(uint256,uint256,uint256,uint256,uint256,uint256,uint256,uint256,bool,bool)",
      "arguments": [
        "14",
        "1",
        "100000000000",
        "7000",
        "1680612900",
        "7257600",
        "36288000",
        "2419200",
        "false",
        "true"
      ],
      "rpc": "https://goerli.infura.io/v3/933de382bfe646aab3dbf58d05f35091",
      "transaction": {
        "type": "0x02",
        "from": "0xfd2f2ac9ba51b8864aa1b9356bffe582eafcf75e",
        "to": "0x71d3b4779fe591147db2013359a7b1a568535812",
        "gas": "0x4e655",
        "value": "0x0",
        "data": "0x0fa3e428000000000000000000000000000000000000000000000000000000000000000e0000000000000000000000000000000000000000000000000000000000000001000000000000000000000000000000000000000000000000000000174876e8000000000000000000000000000000000000000000000000000000000000001b5800000000000000000000000000000000000000000000000000000000642c1e2400000000000000000000000000000000000000000000000000000000006ebe00000000000000000000000000000000000000000000000000000000000229b600000000000000000000000000000000000000000000000000000000000024ea0000000000000000000000000000000000000000000000000000000000000000000000000000000000000000000000000000000000000000000000000000000001",
        "nonce": "0xe",
        "accessList": []
      },
      "additionalContracts": []
    },
    {
      "hash": "0x30585939f1652c9b7c9c7393908bad9a554597964fa5af18af1d940da709a72d",
      "transactionType": "CALL",
      "contractName": "Market",
      "contractAddress": "0x71d3b4779Fe591147db2013359A7B1A568535812",
      "function": "deployMarket(uint256,uint256,uint256,uint256,uint256,uint256,uint256,uint256,bool,bool)",
      "arguments": [
        "20",
        "1",
        "100000000000",
        "40000",
        "1680612900",
        "0",
        "14515200",
        "2419200",
        "false",
        "true"
      ],
      "rpc": "https://goerli.infura.io/v3/933de382bfe646aab3dbf58d05f35091",
      "transaction": {
        "type": "0x02",
        "from": "0xfd2f2ac9ba51b8864aa1b9356bffe582eafcf75e",
        "to": "0x71d3b4779fe591147db2013359a7b1a568535812",
        "gas": "0x47ac4",
        "value": "0x0",
        "data": "0x0fa3e42800000000000000000000000000000000000000000000000000000000000000140000000000000000000000000000000000000000000000000000000000000001000000000000000000000000000000000000000000000000000000174876e8000000000000000000000000000000000000000000000000000000000000009c4000000000000000000000000000000000000000000000000000000000642c1e2400000000000000000000000000000000000000000000000000000000000000000000000000000000000000000000000000000000000000000000000000dd7c00000000000000000000000000000000000000000000000000000000000024ea0000000000000000000000000000000000000000000000000000000000000000000000000000000000000000000000000000000000000000000000000000000001",
        "nonce": "0xf",
        "accessList": []
      },
      "additionalContracts": []
    },
    {
      "hash": "0xc2893a11cf3032681507fccd2715333ff312cdf37443cb6cf4c6860106add3d9",
      "transactionType": "CALL",
      "contractName": "Market",
      "contractAddress": "0x71d3b4779Fe591147db2013359A7B1A568535812",
      "function": "deployMarket(uint256,uint256,uint256,uint256,uint256,uint256,uint256,uint256,bool,bool)",
      "arguments": [
        "17",
        "1",
        "100000000000",
        "25000",
        "1680612900",
        "0",
        "19353600",
        "2419200",
        "false",
        "true"
      ],
      "rpc": "https://goerli.infura.io/v3/933de382bfe646aab3dbf58d05f35091",
      "transaction": {
        "type": "0x02",
        "from": "0xfd2f2ac9ba51b8864aa1b9356bffe582eafcf75e",
        "to": "0x71d3b4779fe591147db2013359a7b1a568535812",
        "gas": "0x4be4b",
        "value": "0x0",
        "data": "0x0fa3e42800000000000000000000000000000000000000000000000000000000000000110000000000000000000000000000000000000000000000000000000000000001000000000000000000000000000000000000000000000000000000174876e80000000000000000000000000000000000000000000000000000000000000061a800000000000000000000000000000000000000000000000000000000642c1e2400000000000000000000000000000000000000000000000000000000000000000000000000000000000000000000000000000000000000000000000001275000000000000000000000000000000000000000000000000000000000000024ea0000000000000000000000000000000000000000000000000000000000000000000000000000000000000000000000000000000000000000000000000000000001",
        "nonce": "0x10",
        "accessList": []
      },
      "additionalContracts": []
    }
  ],
  "receipts": [
    {
      "transactionHash": "0xd77966733c82cdc6acccbff179697bfeb014bf32a2df2daa4ba3e09ff496d74a",
      "transactionIndex": "0x2f",
      "blockHash": "0x096a1ddfb295979e9be8d304083557db33d0146ec8692305ccc20ccec83abcd7",
      "blockNumber": "0x85db8d",
      "from": "0xFD2f2Ac9ba51B8864aa1b9356BfFE582EAfcF75E",
      "to": "0x71d3b4779Fe591147db2013359A7B1A568535812",
      "cumulativeGasUsed": "0x3df6a5",
      "gasUsed": "0x38c1e",
      "contractAddress": null,
      "logs": [],
      "status": "0x1",
      "logsBloom": "0x00000000000000000000000000000000000000000000000000000000000000000000000000000000000000000000000000000000000000000000000000000000000000000000000000000000000000000000000000000000000000000000000000000000000000000000000000000000000000000000000000000000000000000000000000000000000000000000000000000000000000000000000000000000000000000000000000000000000000000000000000000000000000000000000000000000000000000000000000000000000000000000000000000000000000000000000000000000000000000000000000000000000000000000000000000000",
      "type": "0x2",
      "effectiveGasPrice": "0x1e397027d0"
    },
    {
      "transactionHash": "0xf3c2f8c7497e33a4612cee52ca4f58d3418247ff18a0d7e2216d6fb9f389414d",
      "transactionIndex": "0x30",
      "blockHash": "0x096a1ddfb295979e9be8d304083557db33d0146ec8692305ccc20ccec83abcd7",
      "blockNumber": "0x85db8d",
      "from": "0xFD2f2Ac9ba51B8864aa1b9356BfFE582EAfcF75E",
      "to": "0x71d3b4779Fe591147db2013359A7B1A568535812",
      "cumulativeGasUsed": "0x4182c3",
      "gasUsed": "0x38c1e",
      "contractAddress": null,
      "logs": [],
      "status": "0x1",
      "logsBloom": "0x00000000000000000000000000000000000000000000000000000000000000000000000000000000000000000000000000000000000000000000000000000000000000000000000000000000000000000000000000000000000000000000000000000000000000000000000000000000000000000000000000000000000000000000000000000000000000000000000000000000000000000000000000000000000000000000000000000000000000000000000000000000000000000000000000000000000000000000000000000000000000000000000000000000000000000000000000000000000000000000000000000000000000000000000000000000",
      "type": "0x2",
      "effectiveGasPrice": "0x1e397027d0"
    },
    {
      "transactionHash": "0x30585939f1652c9b7c9c7393908bad9a554597964fa5af18af1d940da709a72d",
      "transactionIndex": "0x31",
      "blockHash": "0x096a1ddfb295979e9be8d304083557db33d0146ec8692305ccc20ccec83abcd7",
      "blockNumber": "0x85db8d",
      "from": "0xFD2f2Ac9ba51B8864aa1b9356BfFE582EAfcF75E",
      "to": "0x71d3b4779Fe591147db2013359A7B1A568535812",
      "cumulativeGasUsed": "0x44c101",
      "gasUsed": "0x33e3e",
      "contractAddress": null,
      "logs": [],
      "status": "0x1",
      "logsBloom": "0x00000000000000000000000000000000000000000000000000000000000000000000000000000000000000000000000000000000000000000000000000000000000000000000000000000000000000000000000000000000000000000000000000000000000000000000000000000000000000000000000000000000000000000000000000000000000000000000000000000000000000000000000000000000000000000000000000000000000000000000000000000000000000000000000000000000000000000000000000000000000000000000000000000000000000000000000000000000000000000000000000000000000000000000000000000000",
      "type": "0x2",
      "effectiveGasPrice": "0x1e397027d0"
    }
  ],
  "libraries": [],
  "pending": [],
  "path": "/Users/im/Workspaces/tokensale-with-vesting/broadcast/DeployRounds.s.sol/5/run-latest.json",
  "returns": {},
  "timestamp": 1680612949,
  "chain": 5,
  "multi": false,
  "commit": "eec2307"
}